{
  "_format": "hh-sol-artifact-1",
  "contractName": "Lottery",
  "sourceName": "contracts/Lottery.sol",
  "abi": [
    {
      "inputs": [
        {
          "internalType": "address",
          "name": "_priceFeed",
          "type": "address"
        },
        {
          "internalType": "address",
          "name": "_vrfCoordinator",
          "type": "address"
        },
        {
          "internalType": "int8",
          "name": "_entranceFeeInUsd",
          "type": "int8"
        },
        {
          "internalType": "uint64",
          "name": "_subscriptionId",
          "type": "uint64"
        },
        {
          "internalType": "uint256",
          "name": "_maxParticpantsLimit",
          "type": "uint256"
        }
      ],
      "stateMutability": "nonpayable",
      "type": "constructor"
    },
    {
      "inputs": [],
      "name": "Lottery__LotteryNotOpen",
      "type": "error"
    },
    {
      "inputs": [],
      "name": "Lottery__ParticipantLimitExceeded",
      "type": "error"
    },
    {
      "inputs": [],
      "name": "Lottery__SendMoreToEnterLottery",
      "type": "error"
    },
    {
      "inputs": [],
      "name": "Lottery__TransferFailed",
      "type": "error"
    },
    {
      "inputs": [
        {
          "internalType": "address",
          "name": "have",
          "type": "address"
        },
        {
          "internalType": "address",
          "name": "want",
          "type": "address"
        }
      ],
      "name": "OnlyCoordinatorCanFulfill",
      "type": "error"
    },
    {
      "anonymous": false,
      "inputs": [
        {
          "indexed": true,
          "internalType": "address",
          "name": "previousOwner",
          "type": "address"
        },
        {
          "indexed": true,
          "internalType": "address",
          "name": "newOwner",
          "type": "address"
        }
      ],
      "name": "OwnershipTransferred",
      "type": "event"
    },
    {
      "anonymous": false,
      "inputs": [
        {
          "indexed": false,
          "internalType": "address",
          "name": "_participant",
          "type": "address"
        },
        {
          "indexed": false,
          "internalType": "uint256",
          "name": "_amountDeposited",
          "type": "uint256"
        }
      ],
      "name": "PlayerEnteredLottery",
      "type": "event"
    },
    {
      "anonymous": false,
      "inputs": [
        {
          "indexed": false,
          "internalType": "address",
          "name": "_recentWinner",
          "type": "address"
        },
        {
          "indexed": false,
          "internalType": "uint256[]",
          "name": "_randomWords",
          "type": "uint256[]"
        }
      ],
      "name": "WinnerGotMoney",
      "type": "event"
    },
    {
      "inputs": [],
      "name": "endLottery",
      "outputs": [],
      "stateMutability": "nonpayable",
      "type": "function"
    },
    {
      "inputs": [],
      "name": "enter",
      "outputs": [],
      "stateMutability": "payable",
      "type": "function"
    },
    {
      "inputs": [],
      "name": "getEntranceFee",
      "outputs": [
        {
          "internalType": "uint256",
          "name": "",
          "type": "uint256"
        }
      ],
      "stateMutability": "view",
      "type": "function"
    },
    {
      "inputs": [],
      "name": "getParticipantsLen",
      "outputs": [
        {
          "internalType": "uint256",
          "name": "",
          "type": "uint256"
        }
      ],
      "stateMutability": "view",
      "type": "function"
    },
    {
      "inputs": [],
      "name": "i_entranceFeeInUsd",
      "outputs": [
        {
          "internalType": "int8",
          "name": "",
          "type": "int8"
        }
      ],
      "stateMutability": "view",
      "type": "function"
    },
    {
      "inputs": [],
      "name": "owner",
      "outputs": [
        {
          "internalType": "address",
          "name": "",
          "type": "address"
        }
      ],
      "stateMutability": "view",
      "type": "function"
    },
    {
      "inputs": [
        {
          "internalType": "uint256",
          "name": "requestId",
          "type": "uint256"
        },
        {
          "internalType": "uint256[]",
          "name": "randomWords",
          "type": "uint256[]"
        }
      ],
      "name": "rawFulfillRandomWords",
      "outputs": [],
      "stateMutability": "nonpayable",
      "type": "function"
    },
    {
      "inputs": [],
      "name": "renounceOwnership",
      "outputs": [],
      "stateMutability": "nonpayable",
      "type": "function"
    },
    {
      "inputs": [
        {
          "internalType": "address",
          "name": "",
          "type": "address"
        }
      ],
      "name": "s_addressToAmountDeposited",
      "outputs": [
        {
          "internalType": "uint256",
          "name": "",
          "type": "uint256"
        }
      ],
      "stateMutability": "view",
      "type": "function"
    },
    {
      "inputs": [
        {
          "internalType": "address",
          "name": "",
          "type": "address"
        }
      ],
      "name": "s_isParticipant",
      "outputs": [
        {
          "internalType": "bool",
          "name": "",
          "type": "bool"
        }
      ],
      "stateMutability": "view",
      "type": "function"
    },
    {
      "inputs": [],
      "name": "s_lotteryState",
      "outputs": [
        {
          "internalType": "enum Lottery.LotteryState",
          "name": "",
          "type": "uint8"
        }
      ],
      "stateMutability": "view",
      "type": "function"
    },
    {
      "inputs": [],
      "name": "s_maxParticpantsLimit",
      "outputs": [
        {
          "internalType": "uint256",
          "name": "",
          "type": "uint256"
        }
      ],
      "stateMutability": "view",
      "type": "function"
    },
    {
      "inputs": [
        {
          "internalType": "uint256",
          "name": "",
          "type": "uint256"
        }
      ],
      "name": "s_participants",
      "outputs": [
        {
          "internalType": "address",
          "name": "",
          "type": "address"
        }
      ],
      "stateMutability": "view",
      "type": "function"
    },
    {
      "inputs": [],
      "name": "s_recentWinner",
      "outputs": [
        {
          "internalType": "address payable",
          "name": "",
          "type": "address"
        }
      ],
      "stateMutability": "view",
      "type": "function"
    },
    {
      "inputs": [],
      "name": "s_requestId",
      "outputs": [
        {
          "internalType": "uint256",
          "name": "",
          "type": "uint256"
        }
      ],
      "stateMutability": "view",
      "type": "function"
    },
    {
      "inputs": [
        {
          "internalType": "uint256",
          "name": "_newLimit",
          "type": "uint256"
        }
      ],
      "name": "setMaxParticipantsLimit",
      "outputs": [],
      "stateMutability": "nonpayable",
      "type": "function"
    },
    {
      "inputs": [],
      "name": "startLottery",
      "outputs": [],
      "stateMutability": "nonpayable",
      "type": "function"
    },
    {
      "inputs": [
        {
          "internalType": "address",
          "name": "newOwner",
          "type": "address"
        }
      ],
      "name": "transferOwnership",
      "outputs": [],
      "stateMutability": "nonpayable",
      "type": "function"
    }
  ],
  "bytecode": "0x60e060405234801561001057600080fd5b506040516200120f3803806200120f8339810160408190526100319161011f565b6001600160a01b038416608052610047336100b3565b60009290920b60a05260078054600160401b600160e81b03191669010000000000000000006001600160a01b039687160260ff60401b19161768010000000000000000176001600160401b0319166001600160401b03929092169190911790556006551660c052610196565b600080546001600160a01b038381166001600160a01b0319831681178455604051919092169283917f8be0079c531659141344cd1fd0a4f28419497f9722a3daafe3b4186f6b6457e09190a35050565b80516001600160a01b038116811461011a57600080fd5b919050565b600080600080600060a0868803121561013757600080fd5b61014086610103565b945061014e60208701610103565b935060408601518060000b811461016457600080fd5b60608701519093506001600160401b038116811461018157600080fd5b80925050608086015190509295509295909350565b60805160a05160c05161103b620001d46000396000610599015260008181610148015261043801526000818161068801526106ca015261103b6000f3fe6080604052600436106101095760003560e01c80638638b0c611610095578063d4c8c37311610064578063d4c8c373146102f6578063e89e106a14610324578063e97dcb621461033a578063f2fde38b14610342578063f98ceb151461036257600080fd5b80638638b0c6146102605780638da5cb5b146102985780638df5a6a4146102b6578063cf75b2cc146102d657600080fd5b80631fe543e3116100dc5780631fe543e3146101a957806320dff34e146101c957806328498d92146102095780635d91bb8214610236578063715018a61461024b57600080fd5b806309bc33a71461010e5780630bc26cb4146101365780631593a8c71461017d578063160344e214610194575b600080fd5b34801561011a57600080fd5b50610123610378565b6040519081526020015b60405180910390f35b34801561014257600080fd5b5061016a7f000000000000000000000000000000000000000000000000000000000000000081565b60405160009190910b815260200161012d565b34801561018957600080fd5b50610192610468565b005b3480156101a057600080fd5b5061019261061a565b3480156101b557600080fd5b506101926101c4366004610c7d565b61067d565b3480156101d557600080fd5b506101f96101e4366004610d47565b60026020526000908152604090205460ff1681565b604051901515815260200161012d565b34801561021557600080fd5b50610123610224366004610d47565b60016020526000908152604090205481565b34801561024257600080fd5b50600354610123565b34801561025757600080fd5b50610192610705565b34801561026c57600080fd5b50600454610280906001600160a01b031681565b6040516001600160a01b03909116815260200161012d565b3480156102a457600080fd5b506000546001600160a01b0316610280565b3480156102c257600080fd5b506102806102d1366004610d77565b61073b565b3480156102e257600080fd5b506101926102f1366004610d77565b610765565b34801561030257600080fd5b5060075461031790600160401b900460ff1681565b60405161012d9190610da6565b34801561033057600080fd5b5061012360055481565b610192610794565b34801561034e57600080fd5b5061019261035d366004610d47565b6108db565b34801561036e57600080fd5b5061012360065481565b600080600760099054906101000a90046001600160a01b03166001600160a01b031663feaf968c6040518163ffffffff1660e01b815260040160a06040518083038186803b1580156103c957600080fd5b505afa1580156103dd573d6000803e3d6000fd5b505050506040513d601f19601f820116820180604052508101906104019190610ded565b50505091505060006305f5e100826104199190610e69565b9050600061042f82670de0b6b3a7640000610e69565b9050600061045f7f0000000000000000000000000000000000000000000000000000000000000000820b83610e97565b95945050505050565b6000546001600160a01b0316331461049b5760405162461bcd60e51b815260040161049290610f1c565b60405180910390fd5b6000600754600160401b900460ff1660028111156104bb576104bb610d90565b146104d95760405163823ea8bb60e01b815260040160405180910390fd5b60035461051a5760405162461bcd60e51b815260206004820152600f60248201526e4e6f207061727469636970616e747360881b6044820152606401610492565b600780546802000000000000000060ff60401b198216179091556040516305d3b1d360e41b81527fd89b2bf150e3b9e13446986e571fb9cab24b13cea0a43ea20a6049a85cc807cc600482015267ffffffffffffffff909116602482015260036044820152620186a06064820152600160848201526001600160a01b037f00000000000000000000000000000000000000000000000000000000000000001690635d3b1d309060a401602060405180830381600087803b1580156105dd57600080fd5b505af11580156105f1573d6000803e3d6000fd5b505050506040513d601f19601f820116820180604052508101906106159190610f51565b600555565b6000546001600160a01b031633146106445760405162461bcd60e51b815260040161049290610f1c565b6001600754600160401b900460ff16600281111561066457610664610d90565b1461066e57600080fd5b6007805460ff60401b19169055565b336001600160a01b037f000000000000000000000000000000000000000000000000000000000000000016146106f75760405163073e64fd60e21b81523360048201526001600160a01b037f0000000000000000000000000000000000000000000000000000000000000000166024820152604401610492565b6107018282610976565b5050565b6000546001600160a01b0316331461072f5760405162461bcd60e51b815260040161049290610f1c565b6107396000610b9d565b565b6003818154811061074b57600080fd5b6000918252602090912001546001600160a01b0316905081565b6000546001600160a01b0316331461078f5760405162461bcd60e51b815260040161049290610f1c565b600655565b6000600754600160401b900460ff1660028111156107b4576107b4610d90565b146107d25760405163823ea8bb60e01b815260040160405180910390fd5b6107da610378565b3410156107fa57604051632901e30960e21b815260040160405180910390fd5b6006546003541061081e5760405163993473e960e01b815260040160405180910390fd5b3360009081526002602052604090205460ff1661087857600380546001810182556000919091527fc2575a0e9e593c00f959f8c92f12db2869c3395a3b0502d05e2516446f71f85b0180546001600160a01b031916331790555b33600081815260016020818152604080842034908190556002835293819020805460ff191690931790925581519384528301919091527ff95d19afcfb10921fb16ee6d59fa06900c0b95dd3ef561635442287c95f1f91d910160405180910390a1565b6000546001600160a01b031633146109055760405162461bcd60e51b815260040161049290610f1c565b6001600160a01b03811661096a5760405162461bcd60e51b815260206004820152602660248201527f4f776e61626c653a206e6577206f776e657220697320746865207a65726f206160448201526564647265737360d01b6064820152608401610492565b61097381610b9d565b50565b6002600754600160401b900460ff16600281111561099657610996610d90565b146109a057600080fd5b6000816000815181106109b5576109b5610f6a565b6020026020010151116109c757600080fd5b60008151116109d557600080fd5b6000600380549050826000815181106109f0576109f0610f6a565b6020026020010151610a029190610f80565b6003549091508110610a1357600080fd5b60038181548110610a2657610a26610f6a565b6000918252602082200154600480546001600160a01b0319166001600160a01b03909216918217905560405147908381818185875af1925050503d8060008114610a8c576040519150601f19603f3d011682016040523d82523d6000602084013e610a91565b606091505b5050905080610ab25760405162e4a00960e51b815260040160405180910390fd5b60005b600354811015610b1e5760006002600060038481548110610ad857610ad8610f6a565b6000918252602080832091909101546001600160a01b031683528201929092526040019020805460ff191691151591909117905580610b1681610f94565b915050610ab5565b506040805160008152602081019182905251610b3c91600391610bed565b506007805460ff60401b1916600160401b1790556004546040517f3cd1e164378087c10fd92c32274b2ab5a3536fe9fc7f3093db21479a5639a1f291610b8f916001600160a01b03909116908690610faf565b60405180910390a150505050565b600080546001600160a01b038381166001600160a01b0319831681178455604051919092169283917f8be0079c531659141344cd1fd0a4f28419497f9722a3daafe3b4186f6b6457e09190a35050565b828054828255906000526020600020908101928215610c42579160200282015b82811115610c4257825182546001600160a01b0319166001600160a01b03909116178255602090920191600190910190610c0d565b50610c4e929150610c52565b5090565b5b80821115610c4e5760008155600101610c53565b634e487b7160e01b600052604160045260246000fd5b60008060408385031215610c9057600080fd5b8235915060208084013567ffffffffffffffff80821115610cb057600080fd5b818601915086601f830112610cc457600080fd5b813581811115610cd657610cd6610c67565b8060051b604051601f19603f83011681018181108582111715610cfb57610cfb610c67565b604052918252848201925083810185019189831115610d1957600080fd5b938501935b82851015610d3757843584529385019392850192610d1e565b8096505050505050509250929050565b600060208284031215610d5957600080fd5b81356001600160a01b0381168114610d7057600080fd5b9392505050565b600060208284031215610d8957600080fd5b5035919050565b634e487b7160e01b600052602160045260246000fd5b6020810160038310610dc857634e487b7160e01b600052602160045260246000fd5b91905290565b805169ffffffffffffffffffff81168114610de857600080fd5b919050565b600080600080600060a08688031215610e0557600080fd5b610e0e86610dce565b9450602086015193506040860151925060608601519150610e3160808701610dce565b90509295509295909350565b634e487b7160e01b600052601260045260246000fd5b634e487b7160e01b600052601160045260246000fd5b600082610e7857610e78610e3d565b600160ff1b821460001984141615610e9257610e92610e53565b500590565b60006001600160ff1b0381841382841380821686840486111615610ebd57610ebd610e53565b600160ff1b6000871282811687830589121615610edc57610edc610e53565b60008712925087820587128484161615610ef857610ef8610e53565b87850587128184161615610f0e57610f0e610e53565b505050929093029392505050565b6020808252818101527f4f776e61626c653a2063616c6c6572206973206e6f7420746865206f776e6572604082015260600190565b600060208284031215610f6357600080fd5b5051919050565b634e487b7160e01b600052603260045260246000fd5b600082610f8f57610f8f610e3d565b500690565b6000600019821415610fa857610fa8610e53565b5060010190565b6001600160a01b038316815260406020808301829052835191830182905260009184820191906060850190845b81811015610ff857845183529383019391830191600101610fdc565b509097965050505050505056fea264697066735822122082cb22e4ee4c1201537443d3187c4ed9125c97d1b8fe920a41cfa1791f8d09d264736f6c63430008090033",
  "linkReferences": {},
  "deployedLinkReferences": {}
}